:100000000C942A000C9447000C9447000C94470071
:100010000C9447000C9447000C9447000C94470044
:100020000C9449000C9447000C9447000C948305F1
:100030000C9447000C9447000C9447000C94470024
:100040000C9447000C9447000C9447000C94470014
:100050000C94470011241FBECFE5D4E0DEBFCDBF16
:1000600011E0A0E6B0E0E2E8F6E102C005900D92F2
:10007000A032B107D9F722E0A0E2B1E001C01D92A1
:10008000AC3BB207E1F70E9430080C943F0B0C9494
:1000900000001F920F920FB60F9211248F93809140
:1000A000A70181E08093B6018F910F900FBE0F9052
:1000B0001F90189510BC80E489B98AB188618AB90B
:1000C00080B5866880BD08955D9BFECF8CB908958C
:1000D000DC0180E008C05D9BFECFFD01E20FF31F55
:1000E00090819CB98F5F282F30E0FD0101900020A6
:1000F000E9F73197EA1BFB0B2E173F0760F30895D2
:1001000060E070E040E20DC0F901E80FF91F4083A4
:10011000019688309105C1F76F5F7F4F6830710598
:1001200061F080E090E09B01220F331F220F331F0C
:10013000220F331F2B593E4FE7CFE5E6F1E087E56D
:1001400084A3838F82E483A3848F0895FF920F9307
:100150001F93CF93DF93082F192F8DE00E94640027
:10016000C1E480E20E94640080E20E94640080E2B8
:100170000E9464008C2F0E946400CF5FC93489F70D
:100180008DE00E946400C02FD12F0F2EF1E3FF2ECF
:10019000F02D80E20E9464008BE20E94640008E07F
:1001A00010E08DE20E9464008DE20E9464008DE206
:1001B0000E9464008BE20E9464000150110989F7DB
:1001C0008DE00E9464008F2D0E9464008CE70E94E5
:1001D00064008E01085F1F4F80E20E9464008991D5
:1001E0000E94640080E20E9464008CE70E94640028
:1001F0000C171D0789F78DE00E946400F394E80155
:1002000089E3F812C6CF80E20E9464008BE20E946C
:100210006400C8E0D0E08DE20E9464008DE20E949C
:1002200064008DE20E9464008BE20E9464002197CA
:1002300091F78DE00E946400DF91CF911F910F91A3
:10024000FF9008952F923F924F925F926F927F920C
:100250008F929F92AF92BF92CF92DF92EF92FF92D6
:100260000F931F93CF93DF93CDB7DEB728970FB6C9
:10027000F894DEBF0FBECDBF873559F40F2EF2E4E0
:100280006F2E712CF02D0F2EF7E54F2E512CF02DE7
:100290000AC00F2EF7E56F2E712CF02D0F2EF2E411
:1002A0004F2E512CF02D60E070E040E20EC0F901BD
:1002B000E80FF91F4083019688309105C1F76F5F01
:1002C0007F4F6830710509F4B1C080E090E09B0178
:1002D000220F331F220F331F220F331F2B5D3E4F80
:1002E000E6CFF401EA0DFB1D8081803261F47101DB
:1002F00021E0E21AF1080FEF1FEFB6016A0D7B1D36
:100300007C836B837AC0F401EA0DFB1D8081F601CA
:10031000EA0DFB1D80837AC04F5F5F4F11968F817E
:100320009885019698878F83EF81F885FA83E98312
:10033000C701F8E0EF16F10408F053C09D01A830A2
:10034000B10508F04EC00115110521F469817A81CB
:10035000672B11F3FC01EE0FFF1FEE0FFF1FEE0FD7
:10036000FF1FEB59FE4FE20FF31F608170E066152F
:100370007705B9F5800F911F69817A81260F371FA4
:100380008830910560F52830310550F5FC01EE0FFD
:10039000FF1FEE0FFF1FEE0FFF1FEB59FE4FE20F87
:1003A000F31F60816032E9F0FC01EE0FFF1FEE0FDA
:1003B000FF1FEE0FFF1FEB59FE4FE20FF31F60818F
:1003C00070E046165706B1F626E5EB81FC812083E6
:1003D0006D817E816F5F7F4F7E836D8302C001C020
:1003E00000C0423051050CF497CF0F5F1F4F3FEF15
:1003F000E31AF30A0230110549F0D50111976FEFA6
:100400007FEF40E050E078876F838ECF7FEFA71AB1
:10041000B70A88E0A816B10409F063CF9FEF291A44
:10042000390AE8E02E16310429F416C0212C312CAB
:100430001E821D82A12CB12CC101880F991F880F2B
:10044000991F880F991F9C012B593E4F4901BC01F0
:100450006B5D7E4F6B0145CF8D819E8128960FB6D7
:10046000F894DEBF0FBECDBFDF91CF911F910F91EA
:10047000FF90EF90DF90CF90BF90AF909F908F90C4
:100480007F906F905F904F903F902F9008953F9294
:100490004F925F926F927F928F929F92AF92BF9294
:1004A000CF92DF92EF92FF920F931F93CF93DF9340
:1004B0004B01473559F40F2EF2E44F2E512CF02DFD
:1004C0000F2EF7E56F2E712CF02D0AC00F2EF7E5D9
:1004D0004F2E512CF02D0F2EF2E46F2E712CF02D9B
:1004E000362CFC01EE0FFF1FEE0FFF1FEE0FFF1F5C
:1004F000EB59FE4FE80DF91D60820197CC24CA9498
:10050000DC2C94C06F5F7F4F4F5F5F4F2F5F3F4F7B
:100510005901DC018830910508F07CC07A0148302F
:10052000510508F077C0C114D10419F42115310523
:1005300049F3FD01EE0FFF1FEE0FFF1FEE0FFF1F30
:10054000EB59FE4FEE0DFF1DE081F0E04E165F0609
:1005500009F060C002C07801DE01ED01CC0DDD1DA7
:1005600087010A0D1B1DC830D10508F053C00830A3
:10057000110508F04FC0FE01EE0FFF1FEE0FFF1F29
:10058000EE0FFF1FEB59FE4FE00FF11FE081E0324D
:1005900009F440C0FE01EE0FFF1FEE0FFF1FEE0F2C
:1005A000FF1FEB59FE4FE00FF11FE081F0E06E16E8
:1005B0007F0689F6FD01EE0FFF1FEE0FFF1FEE0F06
:1005C000FF1FEB59FE4FEE0DFF1DE081F0E04E16D0
:1005D0005F0601F5FD01EE0FFF1FEE0FFF1FEE0F8F
:1005E000FF1FEB59FE4FEE0DFF1D3082AC19BD0908
:1005F000EA18FB08FD01EE0FFF1FEE0FFF1FEE0FC5
:10060000FF1FEB59FE4FEE0DFF1DE081F0E04E168F
:100610005F0601F3623071050CF474CF2FEFC21A3C
:10062000D20A019622E0C216D10441F0A401415041
:1006300051092FEF3FEF60E070E06ACFDF91CF917B
:100640001F910F91FF90EF90DF90CF90BF90AF90F0
:100650009F908F907F906F905F904F903F90089504
:100660000F931F93CF93DF93C09121012C2F30E084
:10067000FC01E20FF31F4081413469F441814435AC
:1006800009F017C282818D3009F013C280E690E034
:100690000E94680029C2423559F5DC01A20FB31F40
:1006A00011964C91433509F004C2DC01A20FB31F2F
:1006B00012964C91443509F0FCC1DC01A20FB31F26
:1006C00013968C918D3009F0F4C180E690E00E9481
:1006D00068000E9480008FEF88BB1092A8011092E2
:1006E000A6011092B70185E691E00E94A600FCC128
:1006F000433511F5DC01A20FB31F11964C91403523
:1007000009F04FC0DC01A20FB31F12964C91129753
:10071000403209F0CEC1FD018381873519F4809301
:10072000B40103C082E48093B4011092A8018EE169
:1007300091E00E946800D8C14E34C1F4DC01A20FE0
:10074000B31F11964C91473409F0B3C1DC01A20FDD
:10075000B31F12968C918D3009F0ABC181E080936C
:10076000B80180E690E00E946800BEC1453409F0FF
:1007700055C0DC01A20FB31F11964C91473409F00C
:1007800098C1DC01A20FB31F12968C918D3009F035
:1007900090C181E08093230180E690E00E94680090
:1007A000A3C1DC01A20FB31F11964C91443509F08F
:1007B00080C1DC01A20FB31F12964C9112974032F8
:1007C00009F077C1FD01838190E0BC01605371099C
:1007D000C1970997F0F4072E000C880B990B0E9423
:1007E000730A25E93FEB46ED58E30E94D0090E94C9
:1007F000420A6093A7018091A7011092BB028091E9
:10080000A70180958093A90180E690E00E9468008E
:100810006BC184E690E00E94680066C14D3409F027
:1008200068C0DC01A20FB31F11964C91463509F048
:1008300040C1DC01A20FB31F12964C9112974032B7
:1008400009F037C14091B601411134C0FD01638107
:1008500070E061547109848190E0C197FC01EE0F52
:10086000FF1FEE0FFF1FEE0FFF1FEB5DFE4FE60FAA
:10087000F71F2081263571F44091B4010E94470290
:1008800085E691E00E94A6008091BA028F5F809376
:10089000BA021FC08DE790E00E946800EAEAF1E02A
:1008A00089E480838CE481838DE0828381E080937E
:1008B00024010FC081E890E00E946800EAEAF1E0BC
:1008C00089E4808384E581838DE0828381E0809365
:1008D000240180E690E00E9468001092A8018091B7
:1008E000A90190E09DBD8CBD1092B5011092B6019A
:1008F000FBC0403509F0FEC0DC01A20FB31F11960A
:100900004C91433509F0B4C0DC01A20FB31F12961D
:100910008C918D3009F0CDC08091A5018F5F8093BF
:10092000A50180E690E00E9468001092A8018091E5
:10093000A90190E09DBD8CBD1092B5011092B60149
:10094000D3C0DC01A20FB31F11964C914B3409F0B8
:10095000B0C0DC01A20FB31F12968C918D3009F04C
:10096000A8C08091AA018D34B1F48091AB0180358B
:1009700009F04EC08091AC018D3009F0B5C01092E5
:10098000A6018091A90190E09DBD8CBD1092B5019A
:100990001092B601A9C0873569F48091AB018E34FD
:1009A00009F0A2C08091AC018D3009F09DC0109279
:1009B000A8019AC08C3469F48091AB01833509F0A9
:1009C00093C08091AC018D3009F08EC01092A801C7
:1009D0008BC0843569F48091AB01853409F084C003
:1009E0008091AC018D3009F07FC01092A8017CC0CD
:1009F000813521F58091AB01843509F075C0809176
:100A0000AC018D3009F070C081E0809323016CC08F
:100A10008091AB018D3409F067C08091AC018032C8
:100A200009F062C01092B7018091A90190E09DBDCC
:100A30008CBD1092B5011092B60156C0893409F0F0
:100A400053C08091AB018C3441F48091AC018D3066
:100A500009F04AC01092240147C0843509F044C00F
:100A60008091AC018D3009F03FC0109224013CC050
:100A70004C34F9F4DC01A20FB31F12968C918D3027
:100A8000C1F48091AA01893479F58091AB018C344D
:100A900039F48091AC018D3039F51092240124C0D5
:100AA000843511F58091AC018D30F1F41092240160
:100AB0001BC0D0E08091200190E0C817D9076CF4EA
:100AC0008F01F80181918F010E946400219680912D
:100AD000200190E0C817D907A4F38DE00E946400BC
:100AE00085E890E00E946800809120018F5F8093EC
:100AF000210104C04F3409F424CFDBCFDF91CF9123
:100B00001F910F9108951F920F920FB60F9211240B
:100B10002F933F934F935F936F937F938F939F9305
:100B2000AF93BF93EF93FF938CB1E0912001F0E07E
:100B3000E754FE4F80838D3021F489EB91E00E94D1
:100B40003003809120018F5F80932001FF91EF910E
:100B5000BF91AF919F918F917F916F915F914F91D5
:100B60003F912F910F900FBE0F901F901895CF932C
:100B7000DF93873519F0A2E4B0E002C0A7E5B0E04A
:100B8000C0E0D0E080E090E012C0FB01E20FF31F74
:100B9000408150E0A417B50709F401962F5F3F4F3D
:100BA0002830310591F72196C830D10561F020E059
:100BB00030E0BE01660F771F660F771F660F771F45
:100BC0006B597E4FE2CFDF91CF910895CF93DF93A2
:100BD000CDB7DEB72A970FB6F894DEBF0FBECDBFF4
:100BE0008091B401873551F40E94B7058093B90212
:100BF00082E40E94B705809322010AC082E40E9429
:100C0000B7058093B90287E50E94B705809322015A
:100C100089E890E00E9468008DE990E00E946800F9
:100C2000809122014AE050E0BE016F5F7F4F90E06B
:100C30000E94FF0A0E94680083EA90E00E94680018
:100C40008091B9024AE050E0BE016F5F7F4F90E0B3
:100C50000E94FF0A0E9468008DE00E9464002A96AC
:100C60000FB6F894DEBF0FBECDBFDF91CF910895D0
:100C70008F929F92AF92BF92CF92DF92EF92FF92AC
:100C80000F931F93CF93DF93CDB7DEB7C054D10935
:100C90000FB6F894DEBF0FBECDBF982E8E010F5F4A
:100CA0001F4F60E070E011C0DA01A80FB91F2C914E
:100CB0002193019688309105B9F76F5F7F4F085FE8
:100CC0001F4F6830710509F44FC0F80180E090E0D3
:100CD000AB01440F551F440F551F440F551F4B596F
:100CE0005E4FE2CFF701E00FF11F8081863579F585
:100CF000BE016F5F7F4F40E050E010C08190D9018E
:100D0000A80FB91F8C92019688309105B9F74F5FF3
:100D10005F4F685F7F4F4830510569F0FB0180E00D
:100D200090E09A01220F331F220F331F220F331F2F
:100D30002B593E4FE3CF492DB801C6010E9447020F
:100D4000892D0E94B705A816B9060CF45C010F5F47
:100D50001F4F0830110531F62FEFC21AD20A38E0C2
:100D6000C316D10429F412C0C12CD12CA12CB12C52
:100D700000E010E0C601880F991F880F991F880FA7
:100D8000991F9C012B5D3E4F7901ACCFC501C05C22
:100D9000DF4F0FB6F894DEBF0FBECDBFDF91CF910E
:100DA0001F910F91FF90EF90DF90CF90BF90AF9089
:100DB0009F908F9008952F923F924F925F926F92E3
:100DC0007F928F929F92AF92BF92CF92DF92EF92DB
:100DD000FF920F931F93CF93DF93CDB7DEB7C55824
:100DE000D1090FB6F894DEBF0FBECDBFCF57DF4F8E
:100DF0008883C158D040873529F00F2EF7E5BF2EE4
:100E0000F02D04C00F2EF2E4BF2EF02DCE0101967E
:100E10003C011E0191E4290E311C6101730100E0C7
:100E200010E01EC09B01280F391FF9012081F40139
:100E300021934F019A01280F391FF90120812D9329
:100E400001968830910571F70F5F1F4FF8E0EF0EA4
:100E5000F11C88E0C80ED11C0830110509F470C0DF
:100E6000D601470180E090E0A801440F551F440FD0
:100E7000551F440F551FBA016B597E4F4B5D5E4F96
:100E8000D1CFF70181917F01863509F048C0B301C8
:100E900040E050E010C0D190D901A80FB91FDC92FA
:100EA000019688309105B9F74F5F5F4F685F7F4FBC
:100EB0004830510569F0FB0180E090E09A01220F73
:100EC000331F220F331F220F331F2B593E4FE3CF07
:100ED000CF57DF4F4881C158D040B801C4010E94AC
:100EE00047028B2D0E9422018B2D0E94380684150B
:100EF0009505ACF42C01CD57DF4F0883C358D04083
:100F0000CB57DF4F1883C558D040CE57DF4FA8824C
:100F1000C258D040CC57DF4FC882C458D0400F5F72
:100F20001F4F0830110509F0ACCFFFEF8F1A9F0A51
:100F300088E0280E311C98E089169104D9F432C05B
:100F4000812C912C6894442446F8512CCD57DF4FC6
:100F50001882C358D040CB57DF4F1882C558D040B5
:100F6000CE57DF4F1882C258D040CC57DF4F18827F
:100F7000C458D040710100E010E0A82CC92C81CFEA
:100F80002191DB01A80FB91F2C93019688309105A0
:100F9000B9F74F5F5F4FE8E06E0E711C48305105A6
:100FA00019F40FC040E050E0F30180E090E0BA0196
:100FB000660F771F660F771F660F771F6B597E4F7F
:100FC000DFCFCF57DF4F4881C158D040CD57DF4FDB
:100FD0006881C358D040CB57DF4F7881C558D04087
:100FE000CE57DF4F8881C258D040CC57DF4F988111
:100FF000C458D0400E944702EAEAF1E08DE48083C1
:10100000818380E28283CD57DF4F8881C358D040EF
:101010008F5B8383CE57DF4F8881C258D0408F5C6F
:1010200084838DE08583CF010E946800CB57DF4F1A
:101030000FB6F894DEBF0FBECDBFDF91CF911F91E9
:101040000F91FF90EF90DF90CF90BF90AF909F9067
:101050008F907F906F905F904F903F902F9008956A
:101060000E945A00579A87B38E6087BB8FEF88BB68
:1010700084EB8093A9011092B6011092BB021092EA
:10108000B5011092A7018EB585608EBD8091A90132
:1010900090E09DBD8CBD84E089BF7894C1E06894E8
:1010A000DD24D2F8D1E00AEA11E00F2EFDE4BF2ED4
:1010B000F02D0F2EF0E5CF2EF02D0F2EFDE0EF2EB0
:1010C000F02D6894882481F8F82C6894992493F87A
:1010D0000F2EF4E5AF2EF02DD092BA021092A5019A
:1010E000109223011092B8011092A8011092A6014B
:1010F0001092B7011092B902109222010E94800052
:1011000085E691E00E94A600D093A8018BEA90E0CA
:101110000E9468008091A8018111FCCF8091A901F3
:1011200090E09DBD8CBD1092B6011092BB02109252
:10113000B501C13009F06AC08091B401823491F5E3
:101140000E942201892BA9F01092A50185E291E06D
:101150000E94A6008DEB90E00E946800D093A80149
:101160008091A8018111FCCF809124018111FCCFD5
:101170004BC08091A5018F5F8093A501823058F408
:101180008DEC90E00E946800D093A8018091A801A6
:101190008111FCCF39C08FED90E00E946800D093A0
:1011A000230132C082E40E942201892B89F010922F
:1011B000A50182E40E94DB068091BA028F5F8093D2
:1011C000BA02D093B7018091B7018111FCCF1CC046
:1011D0008091A5018F5F8093A501823078F48DE026
:1011E00091E00E946800F801B082C182E282D0934F
:1011F000A6018091A6018111FCCF06C08FED90E081
:101200000E946800D0932301CF2D6CC0C23009F03A
:1012100069C08091B401873591F50E942201892B24
:10122000A9F01092A50185E291E00E94A6008DEB45
:1012300090E00E946800D093A8018091A8018111DC
:10124000FCCF809124018111FCCF4BC08091A5017E
:101250008F5F8093A501823058F48DEC90E00E945E
:101260006800D093A8018091A8018111FCCF39C0FA
:101270008FED90E00E946800D093230132C087E593
:101280000E942201892B89F01092A50187E50E9416
:10129000DB06D093B7018091B7018111FCCF80911B
:1012A000BA028F5F8093BA021CC08091A5018F5F44
:1012B0008093A501823078F48DE091E00E9468006F
:1012C000F801B082C182E282D093A6018091A6018A
:1012D0008111FCCF06C08FED90E00E946800D09392
:1012E0002301CD2F8091BA02803468F48091A5014A
:1012F000823048F480912301813029F08091B80137
:10130000813009F016CF85E691E00E94A6000E9488
:10131000E605909122018091B9028917A0F488B363
:10132000882588BB81E191E00E94680087E5F8018B
:1013300080838EE48183E282D093A8018091A8010A
:101340008111FCCFC9CE909122018091B9029817EA
:10135000A0F488B38D2588BB86E191E00E946800E7
:101360008CE4F801808383E58183E282D093A80135
:101370008091A8018111FCCFAFCE88B3892588BBAD
:101380008BE191E00E946800F801A08285E48183EE
:10139000E282D093A8018091A8018111FCCF9CCE5C
:1013A0000E94E4090C94C50A0E94BE0A58F00E94EB
:1013B000B70A40F029F45F3F29F00C94AE0A5111AE
:1013C0000C94F90A0C94B40A0E94D60A68F3992383
:1013D000B1F3552391F3951B550BBB27AA27621731
:1013E0007307840738F09F5F5F4F220F331F441F3E
:1013F000AA1FA9F335D00E2E3AF0E0E832D0915072
:101400005040E695001CCAF72BD0FE2F29D0660F5E
:10141000771F881FBB1F261737074807AB07B0E8A1
:1014200009F0BB0B802DBF01FF2793585F4F3AF0A7
:101430009E3F510578F00C94AE0A0C94F90A5F3F78
:10144000E4F3983ED4F3869577956795B795F7952D
:101450009F5FC9F7880F911D9695879597F9089515
:10146000E1E0660F771F881FBB1F621773078407B1
:10147000BA0720F0621B730B840BBA0BEE1F88F7C0
:10148000E09508950E94DE0A88F09F5798F0B92FE2
:101490009927B751B0F0E1F0660F771F881F991FA9
:1014A0001AF0BA95C9F714C0B13091F00E94F80A49
:1014B000B1E008950C94F80A672F782F8827B85F59
:1014C00039F0B93FCCF3869577956795B395D9F701
:1014D0003EF490958095709561957F4F8F4F9F4F0B
:1014E0000895E89409C097FB3EF490958095709517
:1014F00061957F4F8F4F9F4F9923A9F0F92F96E960
:10150000BB279395F695879577956795B795F111D4
:10151000F8CFFAF4BB0F11F460FF1BC06F5F7F4F71
:101520008F4F9F4F16C0882311F096E911C0772383
:1015300021F09EE8872F762F05C0662371F096E88C
:10154000862F70E060E02AF09A95660F771F881F5B
:10155000DAF7880F9695879597F9089597F99F6719
:1015600080E870E060E008959FEF80EC089500242B
:101570000A941616170618060906089500240A94F8
:1015800012161306140605060895092E0394000C7E
:1015900011F4882352F0BB0F40F4BF2B11F460FF0D
:1015A00004C06F5F7F4F8F4F9F4F089557FD905836
:1015B000440F551F59F05F3F71F04795880F97FB17
:1015C000991F61F09F3F79F08795089512161306D1
:1015D0001406551FF2CF4695F1DF08C01616170600
:1015E0001806991FF1CF8695710561050894089535
:1015F000E894BB2766277727CB0197F908954532F2
:10160000510520F4423010F00C940A0BFB011082BB
:10161000CB010895BB274A3031F4992322F4BDE26F
:10162000909581959F4F0C94160BBB27FB01552776
:10163000AA27880F991FAA1FA41710F0A41B83952F
:101640005051B9F7A05DAA3308F0A95DA1930097A6
:1016500079F7B111B1931192CB010C942F0BDC01EE
:10166000FC01672F71917723E1F7329704C07C91D9
:101670006D9370836291AE17BF07C8F30895F89415
:02168000FFCF9A
:101682004F4B0D0057524F4E472056414C55452067
:101692007365742064656661756C740D00494C0D48
:1016A2000049540D0045520D005468652066696E6C
:1016B200616C2073636F72652069733A0041565200
:1016C2003A200020557365723A20005069636B20FE
:1016D200426C61636B2F57686974650D00547970B1
:1016E2006520796F7572206D6F76650D00596F7583
:1016F200206861766520746F20706173730D004EEF
:10170200656974686572206F6620757320686176FA
:101712006520617661696C61626C65206D6F7665CA
:101722002C2067616D65206F7665720D004D500D3E
:101732000020574E0D00204C530D002054450D0043
:00000001FF
